:020000040800F2
:10000000680E0020A9010008F1240008ED24000872
:10001000B5010008B7010008B901000800000000A0
:10002000000000000000000000000000BD270008E4
:10003000610600080000000055250008C1270008DF
:10004000C3010008C3010008C3010008812600089D
:10005000C3010008C30100086D060008C3010008C1
:10006000C3010008C3010008A9060008C301000875
:10007000C3010008C3010008C3010008C301000850
:10008000C3010008C3010008C3010008000000000C
:10009000000000000000000000000000C301000894
:1000A000C3010008C3010008C3010008C301000820
:1000B000C3010008C3010008C3010008C301000810
:1000C000C3010008C3010008C3010008C301000800
:1000D000C3010008C3010008C301000800000000BC
:1000E00095060008C3010008C301000800000000D5
:1000F000000000000000000000000000C301000834
:1001000000000000C3010008C3010008C30100088B
:1001100000000000000000000000000000000000DF
:10012000C3010008C3010008C3010008C30100089F
:10013000C3010008000000000000000000000000F3
:10014000000000000000000000000000C3010008E3
:10015000C3010008C3010008C3010008C30100086F
:10016000C3010008C30100080000000000000000F7
:10017000000000000000000000000000000000007F
:1001800000000000C30100080000000000000000A3
:10019000C3010008DFF80CD000F03CF8004800472D
:1001A00001390008680E00200648804706480047CD
:1001B000FEE7FEE7FEE7FEE7FEE7FEE7FEE7FEE717
:1001C000FEE7FEE7D92700089501000810B540EAD0
:1001D00001040346A40703D009E010C9121F10C38D
:1001E000042AFAD203E011F8014B03F8014B521E26
:1001F000F9D210BD10B50346C9B201E003F8011BE6
:10020000521EFBD210BD421C10F8011B0029FBD16D
:10021000801A7047064C074D06E0E06840F0010385
:1002200094E8070098471034AC42F6D3FFF7B6FFC6
:10023000E83A0008083B000810B59AB041A30FCB7C
:1002400016AC0FC443A090E80E00C06812AC0EC4F8
:10025000159044A30FCB0EAC0FC446A3D3E90121E4
:100260001868DB68CDE90C13CDE90A0245A3D3E990
:1002700001021968DB6807AC0DC4069145480B23E1
:10028000012216A90090022002F079FE044604B172
:1002900055E0414801211022CDE90212CDE90410B8
:1002A00000200821142312AACDE9001002213948A8
:1002B000008802F0F4FD044604B140E03748012113
:1002C00010220023CDE90232CDE904100421CDE94A
:1002D000001314230AAA02212E48008802F0DFFD31
:1002E000044604B12BE02E48012110220023CDE961
:1002F0000232CDE904101221CDE9001314230EAA15
:1003000002212448008802F0CAFD044604B116E028
:100310002448012110220023CDE90232CDE9002337
:10032000CDE90410142306AA02211A48008802F01D
:10033000B6FD044604B102E000201AB010BD47200B
:10034000FBE700008CF997A6EE94E3BCF821B260BD
:10035000008000008CF997A6EE94E3BCF821B2600F
:10036000018000008CF997A6EE94E3BCF821B260FE
:10037000028000008CF997A6EE94E3BCF821B260ED
:10038000038000008CF997A6EE94E3BCF821B260DC
:10039000048000002A0000202C0000202E000020F5
:1003A000300000203200002010B50D480D490860D3
:1003B0004FF48270486000210A488160C160016189
:1003C00041614FF4007181610021016241620721A6
:1003D000C1620021C161816201F0FBFA10BD000021
:1003E000003001408C05002010B586B0044600BFE7
:1003F0006CB900BF1348006840F002001149086062
:100400000846006800F00200009000BF00BF00BF77
:100410000D4830F814000190012002900390022052
:1004200004900A4951F8240001A900F069F9064A2C
:1004300032F81410054A52F82400002200F050FA55
:1004400006B010BD30380240C03A000868000020F5
:1004500000B591B001200090019002200690410566
:100460000791102108914FF4A871099104210A9174
:1004700007210B91684600F0B3FD0F200C9002207D
:100480000D9000200E904FF480500F90002010909F
:1004900002210CA800F0ACFB11B000BD10B510217A
:1004A000034800F015FA012800D110BD0020FCE738
:1004B0000008024010B500220221074800F010FA9F
:1004C000052000F0FEF801220221034800F008FA9E
:1004D000052000F0F6F810BD000402402DE9F041BF
:1004E00088B080460F4616460025FF20079022A1BF
:1004F00003C9CDE9040100221021214800F0F0F9E0
:100500000F20052302AA04A90090404601F07EFBBB
:100510009DF8080002281BD19DF80B009DF80C10D7
:1005200040EA0124002C13DDB44200DD34460025EE
:100530000CE00F20012306AA07A90090404601F015
:1005400065FB9DF818007855681CC5B2A542F0DB24
:10055000012210210A4800F0C3F90020019003E0B5
:1005600000BF0198401C019001980228F8DB284642
:1005700008B0BDE8F08100000B00000000000000A2
:10058000000002402DE9F047C6B080468946164675
:100590001C464E9D4FF0000A0027012726A103C9E3
:1005A0004591449026A103C94391429000F059F827
:1005B0001FB103F057FA03F073FA0022102122480A
:1005C00000F08EF90F20052342AA44A9009040466E
:1005D00001F01CFB0FB103F029FA9DF80801022875
:1005E0001CD19DF809016119884214DB002C07DD3C
:1005F0000F20234602AA49460090404601F006FB20
:10060000002D0DDD0F202B4602AA314600904046FA
:1006100001F0FCFA04E06FF0010A01E04FF0FF3A4C
:1006200001221021084800F05BF900F042F8504622
:1006300046B0BDE8F08700000A000000000000009E
:10064000AA00000000000000000002401020014944
:1006500008607047143C014010B500F047F910BD28
:10066000704710B50A2000F081F910BD10B5074899
:10067000006800F0010040B101200449086004480E
:10068000006810B102480068804710BD143C01406A
:100690007C00002010B5022000F024F80120014960
:1006A000087010BD7800002010B5102000F01AF876
:1006B00010BD10B50A2000F067F910BD70477047F3
:1006C000704731B500F012F9044600BF00F00EF992
:1006D000001B00998842F9D338BD10B5044601F0DB
:1006E0003DFE10BD10B5044604480068204020B10E
:1006F000024804602046FFF7F0FF10BD143C0140A3
:10070000F8B503460A460025002400200021CBE06E
:10071000012606FA01F5166806EA0504AC4271D115
:100720005668022E02D05668122E13D1CF0803F15C
:10073000200656F827004E07F70E0F26BE40B0439E
:100740004F07FF0E1669BE403043CF0803F1200665
:1007500046F8270018684F000326BE40B0431679BC
:1007600006F003064F00BE40304318605668012E65
:1007700008D05668022E05D05668112E02D0566851
:10078000122E13D198684F000326BE40B0434F008D
:10079000D668BE4030439860586801268E40B0430A
:1007A0001679C6F300168E4030435860D8684F0063
:1007B0000326BE40B0434F009668BE403043D86029
:1007C000566806F08056B6F1805F6CD100BF384E97
:1007D000366846F48046364F3E603E46366806F43C
:1007E0008046009600BF00BF324E8F0856F82700A3
:1007F0008E07370F0F26BE40B0432F4EB34202D1B3
:10080000002615E04FE02D4EB34201D101260FE046
:100810002B4EB34201D102260AE02A4EB34201D147
:10082000032605E0284EB34201D1042600E0052648
:100830008F073F0FBE4030431E4E8F0846F82700FB
:10084000224E3068A043566806F48036B6F5803FE5
:1008500000D120431D4E3060361D3068A0435668DD
:1008600006F40036B6F5003F00D12043174E361D82
:100870003060361D3068A043566806F48016B6F521
:10088000801F00D12043114E08363060361D30687D
:10089000A043566806F40016B6F5001F00D12043A9
:1008A0000A4E0C363060491C1029FFF431AFF8BDF8
:1008B0004438024008380140000002400004024071
:1008C00000080240000C024000100240003C0140C1
:1008D000024613690B400BB1012000E00020704775
:1008E0000AB1816101E00B0483617047014800682F
:1008F000704700008000002002480068401C014949
:10090000086070478000002010B50D48006840F472
:1009100000700B4908600846006840F48060086079
:100920000846006840F480700860032000F078F802
:100930000F2000F007F800F017F8002010BD0000AD
:10094000003C024070B5044600F0AAFA4FF47A71F8
:10095000B0FBF1F5284601F002FB00222146501EB3
:1009600000F01FF8002070BD7047000000BF00F0CD
:100970001F0201219140034A430942F8231000BF9E
:100980007047000080E100E000BF00F01F0201217D
:1009900091404209920002F1E022C2F8001100BF2A
:1009A00070472DE9F05F80460D461646002701F09E
:1009B000A1FD074639462A46334601F00700C0F13B
:1009C000070ABAF1040F02D94FF0040A01E0C0F19E
:1009D000070AD14600F1040ABAF1070F02D24FF01C
:1009E000000A01E0A0F1030AD4464FF0010A0AFA16
:1009F00009FAAAF1010A0AEA020A0AFA0CFA4FF005
:100A0000010B0BFA0CFBABF1010B0BEA030B4AEAEF
:100A10000B042146404601F075FDBDE8F09F000043
:100A200000BF00F00702064B19684FF6FF0319409C
:100A3000044B0B4343EA0221014B196000BF70478E
:100A40000CED00E00000FA05F8B50446002500268C
:100A5000207800F0010070B3002060498866FFF73D
:100A600045FF054606E0FFF741FF401B642801D91A
:100A70000320F8BD5A480068C0F3C0600028F2D1D6
:100A800047F6C07191FAA1F1B1FA81F1606888402E
:100A90004FF0E04292FAA2F2B2FA82F2A1689140DB
:100AA00008434F498431086001204C498866FFF7AC
:100AB0001DFF054607E00CE0FFF718FF401B642808
:100AC00001D90320D5E746480068C0F3C06000287C
:100AD000F2D0207800F0020002287CD100BF40480C
:100AE0004030006840F080503D4940310860084681
:100AF000006800F08050009000BF00BF39480068D7
:100B000040F4807037490860FFF7F0FE054606E0C4
:100B1000FFF7ECFE401B642801D90320A9E7314808
:100B2000006800F480700028F2D02D487030006812
:100B300000F44070A18901F4407188420CD028482B
:100B40007030006820F440760120274908600020BA
:100B50000860234870300660E068B0F5807F13D1EC
:100B6000FFF7C4FE054608E0FFF7C0FE401B41F258
:100B70008831884201D903207BE71948703000682A
:100B8000C0F340000028EFD000BFA08900F44070FF
:100B9000B0F5407F0CD112480830006820F4F810FE
:100BA000124AE168114008430D490831086007E026
:100BB0000B480830006820F4F81009490831086033
:100BC000074870300068A189C1F30B01084304494C
:100BD0007031086000BF00204BE700000000474272
:100BE0000038024000700040400E4742FFFCFF0FFB
:100BF00070B504460E460025A748006800F00F00B7
:100C0000B0426FD2A4490E700846006800F00F0091
:100C1000B04201D0012070BD207800F0020002280F
:100C200007D19E48006820F0F000A16808439B4966
:100C30000860207800F0010000283ED0606801289C
:100C400007D1964808380068C0F34040B8B9012081
:100C5000E1E76068022802D06068032807D18F4866
:100C600008380068C0F3406048B90120D3E78B48DA
:100C700008380068C0F3400008B90120CBE7874876
:100C8000006820F003006168084384490860FFF7AA
:100C90002DFE05466068012810D108E0FFF726FE0A
:100CA000401B41F28831884201D90320B3E77B48D9
:100CB000006800F00C000428F0D1CDE06068022844
:100CC00011D108E0FFF712FE401B41F28831884243
:100CD00001D903209FE77148006800F00C00082844
:100CE000F0D1B9E024E06068032810D108E0FFF7F4
:100CF000FDFD401B41F28831884201D903208AE77B
:100D00006648006800F00C000328F0D1A4E008E079
:100D1000FFF7ECFD401B41F28831884201D90320E6
:100D200079E75E48006800F00C000028F0D193E0FD
:100D3000207800F00200022807D15848006820F00F
:100D4000F000A168084355490860207800F00100D0
:100D5000002877D06068012807D15048083800681B
:100D6000C0F34040B8B9012055E76068022802D0BE
:100D70006068032807D1494808380068C0F340601C
:100D800048B9012047E7454808380068C0F34000EB
:100D900008B901203FE74148006820F0030061687E
:100DA00008433E490860FFF7A1FD05466068012839
:100DB00010D108E0FFF79AFD401B41F288318842CC
:100DC00001D9032027E73548006800F00C0004280B
:100DD000F0D137E06068022810D108E0FFF786FD07
:100DE000401B41F28831884201D9032013E72B4888
:100DF000006800F00C000828F0D123E060680328A8
:100E000010D108E0FFF772FD401B41F288318842A3
:100E100001D90320FFE62148006800F00C000328F8
:100E2000F0D10FE008E0FFF761FD401B41F288318F
:100E3000884201D90320EEE61848006800F00C0053
:100E40000028F0D114490E700846006800F00F0029
:100E5000B04201D00120DEE6207800F00400042832
:100E600007D10E48006820F4E050E16808430B49C0
:100E70000860207800F00800082808D107480068BA
:100E800020F46040216940EAC100044908600F2055
:100E9000FFF758FD0020BEE6003C02400838024043
:100EA00010B500F045F80949096801F0F001F02299
:100EB00092FAA2F2B2FA82F2D140054A515CC840DD
:100EC000044908600846006810BD00000838024068
:100ED000C53A00088400002010B5FFF7E1FF07497C
:100EE000096801F4E0514FF4E05292FAA2F2B2FA2A
:100EF00082F2D140024A515CC84010BD083802401D
:100F0000C53A000810B5FFF7CBFF0749096801F49F
:100F100060414FF4604292FAA2F2B2FA82F2D140FA
:100F2000024A515CC84010BD08380240C53A00086A
:100F300070B50021002200230020274C246804F013
:100F40000C0424B1042C04D0082C41D103E0234824
:100F500040E022483EE0204C241F246804F03F017A
:100F60001D4C241F246804F4800484B11B4CB4FB82
:100F7000F1F5194C241F246847F6C076344096FAE0
:100F8000A6F6B6FA86F6F44005FB04F20FE0134C21
:100F9000B4FBF1F5104C241F246847F6C0763440AA
:100FA00096FAA6F6B6FA86F6F44005FB04F20A4C69
:100FB000241F246804F440344FF4403595FAA5F515
:100FC000B5FA85F5EC40641C6300B2FBF3F001E078
:100FD000024800BF00BF70BD083802400024F40082
:100FE00038B504460025207800F00100002866D0BE
:100FF000F648006800F00C0004280DD0F3480068A3
:1010000000F00C00082813D1F048001F006800F41D
:101010008000B0F5800F0BD1EC4808380068C0F3B1
:10102000404000284BD06068002848D1012038BDDE
:101030000020E649891F0870FFF758FC054608E0C4
:10104000FFF754FC401B41F28831884201D903204C
:10105000EDE7DE4808380068C0F340400028EFD1D3
:101060002079DA49891F08706068A0B1FFF73EFC5B
:10107000054608E0FFF73AFC401B41F28831884200
:1010800001D90320D3E7D14808380068C0F34040B5
:101090000028EFD013E0FFF729FC054608E0FFF732
:1010A00025FC401B41F28831884201D90320BEE76C
:1010B000C64808380068C0F340400028EFD12078C7
:1010C00000F00200022869D1C048006800F00C005E
:1010D00058B1BE48006800F00C00082821D1BB4878
:1010E000001F006800F48000D8B9B84808380068CC
:1010F000C0F3400020B1E068012801D0012096E74C
:10110000B2480838006820F0F800F82292FAA2F2FB
:10111000B2FA82F2216991400843AC49083908606B
:101120003CE0E06828B30120A9490860FFF7DEFB36
:10113000054606E0FFF7DAFB401B642801D90320CF
:1011400075E7A24808380068C0F340000028F1D0D5
:101150009E480838006820F0F800F82292FAA2F2BF
:10116000B2FA82F22169914008439849083908602F
:1011700014E0002096490860FFF7B8FB054606E03A
:10118000FFF7B4FB401B642801D903204FE78F48C9
:1011900008380068C0F340000028F1D1207800F042
:1011A000080008282CD16069A8B10120894908608D
:1011B000FFF79CFB054606E0FFF798FB401B642801
:1011C00001D9032033E781486C300068C0F3400048
:1011D0000028F1D014E000207E490860FFF786FB6C
:1011E000054606E0FFF782FB401B642801D9032077
:1011F0001DE776486C300068C0F340000028F1D14C
:10120000207800F0040004286DD100BF6F4838300A
:10121000006840F080506D49383108600846006829
:1012200000F08050009000BF00BF6B48006840F4A1
:10123000807069490860FFF759FB054606E0FFF733
:1012400055FB401B642801D90320F0E66248006882
:1012500000F480700028F2D000205C4968310870EA
:10126000FFF744FB054608E0FFF740FB401B41F257
:101270008831884201D90320D9E654486830006893
:10128000C0F340000028EFD1207A5049683108703F
:10129000A068A0B1FFF72AFB054608E0FFF726FB90
:1012A000401B41F28831884201D90320BFE64748FC
:1012B00068300068C0F340000028EFD013E0FFF76B
:1012C00015FB054608E0FFF711FB401B41F2883192
:1012D000884201D90320AAE63C4868300068C0F380
:1012E00040000028EFD1A069F0B33848006800F052
:1012F0000C00082872D0A069022850D1002034497F
:101300000866FFF7F3FA054606E0FFF7EFFA401B21
:10131000642801D903208AE62C4808380068C0F305
:1013200040600028F1D1D4E90701084347F6C072B4
:1013300092FAA2F2B2FA82F2616A91400843012263
:10134000A16AC2EB51014FF4403292FAA2F2B2FA12
:1013500082F2914008434FF0706292FAA2F2B2FA20
:1013600082F2E16A914000E03AE008431749091F20
:101370000860012016490866FFF7B8FA054606E03E
:10138000FFF7B4FA401B642801D903204FE60F4849
:1013900008380068C0F340600028F1D020E0002049
:1013A0000B490866FFF7A2FA054606E0FFF79EFA2A
:1013B000401B642801D9032039E604480838006836
:1013C000C0F340600028F1D10AE007E0083802408D
:1013D00000004742800E474200700040012026E690
:1013E000002024E670B50446002500BF207F0128B8
:1013F00001D1022070BD0120207700BF022060775C
:1014000000BFCA202168486253202168486200BF9B
:101410002068806820F48060216888602068806887
:1014200020F4804021688860FFF760FA054612E0EA
:10143000FFF75CFA401BB0F57A7F0CD900BFFF20A4
:101440002168486200BF0320607700BF002020773A
:1014500000BF0320CEE72068C068C0F380000028EA
:10146000E6D000BFFF202168486200BF01206077FE
:1014700000BF0020207700BF00BFBBE72DE9F0418F
:1014800004460D461646002700BF207F012802D1E2
:101490000220BDE8F0810120207700BF02206077A4
:1014A00000BFCA202168486253202168486200BFFB
:1014B0002068806820F4806021688860FFF716FA51
:1014C000074612E0FFF712FAC01BB0F57A7F0CD97D
:1014D00000BFFF202168486200BF0320607700BF83
:1014E0000020207700BF0320D3E72068C068C0F346
:1014F00080000028E6D0206845612068806820F0E0
:10150000070021688860206880683043216888600F
:101510001348006840F48000114908601048083002
:10152000006840F480000E49083108602068806837
:1015300040F48040216888602068806840F48060C2
:101540002168886000BFFF202168486200BF012039
:10155000607700BF0020207700BF00BF99E7000040
:10156000003C01407047000010B504462068C06888
:10157000C0F3802078B12068806800F4804050B1CA
:101580002046FFF7EFFF2068C06800F0800060F49D
:1015900090602168C8604FF4800002490860012013
:1015A000607710BD143C014070B505460B461646E9
:1015B0000024286840680E4900EA0104200CD87015
:1015C000C4F30420587004F03F009870C4F3423014
:1015D00018705EB9D87800F0BEFFD870587800F067
:1015E000BAFF5870987800F0B6FF9870002070BD70
:1015F0003FFFFF0070B505460B46164600242868DD
:10160000806A5860286800680F4900EA0104C4F342
:1016100005401870C4F30620587004F07F009870DD
:1016200004F48000000C18725EB9187800F093FF83
:101630001870587800F08FFF5870987800F08BFF82
:101640009870002070BD00007F7F7F0010B50446B9
:101650000CB9012010BD607F20B900202077204602
:1016600000F04EF80220607700BFCA20216848626F
:1016700053202168486200BF204600F0E1FF40B1DE
:1016800000BFFF202168486200BF0420607701206E
:10169000E0E720688068194908402168886021696E
:1016A00060680843616908432168896808432168C4
:1016B00088602168E068086120680169208941EA42
:1016C0000040216808612068C06820F0800021681F
:1016D000C8602068006C20F48020216808642068BD
:1016E000006CA16908432168086400BFFF202168DD
:1016F000486200BF012060770020ABE7BFFF8FFF8B
:1017000010B590B004460420049000200A900120F7
:10171000069004A8FFF764FC08B100BFFEE70220B2
:101720000090C00103906846FFF78EF908B100BF32
:10173000FEE701200549086000220F210320FFF782
:1017400030F90320FFF720F910B010BD3C0E4742DE
:101750002DE9F04104460D461646002700BF207FC4
:10176000012802D10220BDE8F0810120207700BFCE
:10177000022060774EB9687800F01000102804D17C
:10178000687800F0EF000A30687086B9E87800F0F9
:10179000EDFE0304687800F0E9FE43EA0023A87830
:1017A00000F0E4FE0343287843EA403711E068780C
:1017B00000F0D1FE0746A87800F0CDFE0746E87895
:1017C0000004697840EA0120A9780843297840EAB2
:1017D000413700BFCA20216848625320216848620F
:1017E00000BF204600F02CFF60B100BFFF20216841
:1017F000486200BF0420607700BF0020207700BF50
:101800000120B0E716483840216848602068C06869
:1018100020F080002168C8602068806800F0200007
:1018200080B9204600F0B8F860B100BFFF20216801
:10183000486200BF0420607700BF0020207700BF0F
:10184000012090E700BFFF202168486200BF01200F
:10185000607700BF0020207700BF00BF83E7000053
:101860003FFFFF002DE9F04104460D4616460027D4
:1018700000BF207F012802D10220BDE8F0810120B5
:10188000207700BF02206077CEB92068806800F022
:10189000400000B102E00020287200BF287800F06C
:1018A00065FE0304687800F061FE43EA0023A8782F
:1018B00000F05CFE0343287A43EA004716E0206804
:1018C000806800F0400020B1287800F044FE074610
:1018D00002E00020287200BF28780004697840EAFE
:1018E0000120A9780843297A40EA014700BFCA20AD
:1018F0002168486253202168486200BF204600F0FA
:101900009FFE60B100BFFF202168486200BF042035
:10191000607700BF0020207700BF0120ADE71D48A1
:101920003840216808602068806820F480202168A1
:101930008860D5E903010843216889680843216864
:1019400088602068C06820F080002168C860206836
:10195000806800F0200080B9204600F01DF860B1DA
:1019600000BFFF202168486200BF0420607700BFED
:101970000020207700BF01207FE700BFFF20216803
:10198000486200BF0120607700BF0020207700BFC1
:1019900000BF72E77F7F7F0070B504460025206896
:1019A000C06820F0A0002168C860FEF79FFF0546D0
:1019B00007E0FEF79BFF401BB0F57A7F01D90320BB
:1019C00070BD2068C06800F020000028F1D0002021
:1019D000F6E710B504460CB9012010BD94F851008B
:1019E00028B9002084F85000204600F037F8022083
:1019F00084F851002068006820F0400021680860E9
:101A0000D4E901010843E168084321690843616999
:101A10000843218B01F400710843E1690843216AFE
:101A20000843A16A0843216808600421A06901EA0B
:101A30001040616A0843216848602168E06A0861D3
:101A40002068C06920F400602168C86100206065DA
:101A5000012084F851000020BFE7000010B586B0D7
:101A600004466449206888427ED100BF624800680D
:101A700040F00200604908600846006800F002007B
:101A8000009000BF00BF00BF0846006840F00100A2
:101A900008600846006800F00100009000BF00BF29
:101AA00000BF0846006840F0010008600846006872
:101AB00000F00100009000BF00BF00BF08460068B2
:101AC00040F0010008600846006800F00100009046
:101AD00000BF00BF00BF0846006840F0010008607A
:101AE0000846006800F00100009000BF00BF00BF82
:101AF0000846006840F0040008600846006800F0EE
:101B00000400009000BF00BF00BF3B4814300068D5
:101B100040F480503849143108600846006800F4E9
:101B20008050009000BF00BF022001900120029071
:101B3000039000200490059001A93048FEF7E0FDD5
:101B4000002202212D48FEF7CBFE2020019002202A
:101B500002900390032004900520059001A92848D5
:101B6000FEF7CEFD402000E042E00190022002900E
:101B700000200390032004900520059001A920482F
:101B8000FEF7BEFD8020019002200290002003900D
:101B9000032004900520059001A91948FEF7B0FD27
:101BA0001020019001200290039003200490002057
:101BB000059001A91248FEF7A3FD0122102110484B
:101BC000FEF78EFE102001900E4802900020039038
:101BD000032004900020059001A90B48FEF790FD1A
:101BE000002203210A20FEF7DCFE0A20FEF7CCFECD
:101BF00006B010BD00300140303802400004024001
:101C00000000024000001110000802402DE9F84FCA
:101C100004460E4617461D46DDF828904FF0000892
:101C2000C24694F85180B8F1010F02D0B8F1220FEA
:101C300076D10EB107B115B90120BDE8F88F00BF0C
:101C400094F85000012801D10220F6E7012084F821
:101C5000500000BF94F85100012802D1322084F8CE
:101C6000510000206065A763A587E5872663A586E8
:101C7000E586A064E064A06AB0F5005F0DD100BF06
:101C80002068006820F4005021680860206800681F
:101C900040F400502168086000BF2068006800F030
:101CA0004000402805D02068006840F040002168CE
:101CB0000860E068B0F5006F75D1606830B16068A9
:101CC000B0F5827F0CD1E08E012809D1206B00880D
:101CD0002168C860206B801C2063E08E401EE08677
:101CE000E08EF0B9A06AB0F5005F05D12068006809
:101CF00040F48050216808604B46002201212046B4
:101D000000F0D2FC08B1032097E72068C068A16BFF
:101D10000880A06B801CA063E08F401EE087C7E0B6
:101D20001BE131E04B4600220221204600F0BCFCC2
:101D300008B1032081E7206B00882168C860206B10
:101D4000801C2063E08E401EE086E08E48B9A06AC9
:101D5000B0F5005F05D12068006840F4805021682C
:101D600008604B4600220121204600F09DFC08B18E
:101D7000032062E72068C068A16B0880A06B801C0C
:101D8000A063E08F401EE087E08E0028CADC606818
:101D90000028C4D14B4600220121204600F084FCDB
:101DA00010B1032049E70AE02068C068A16B0880F1
:101DB000A06B801CA063E08F401EE08778E0606825
:101DC00030B16068B0F5827F0BD1E08E012808D178
:101DD000216B481C206308782168C860E08E401E93
:101DE000E086E08ED0B9A06AB0F5005F05D120682A
:101DF000006840F48050216808604B4600220121B1
:101E0000204600F051FC08B1032016E72068C068A6
:101E1000A16B0870E08F401EE08749E030E04B4640
:101E200000220221204600F03FFC08B1032004E715
:101E3000216B481C206308782168C860E08E401E32
:101E4000E086E08E48B9A06AB0F5005F05D1206851
:101E5000006840F48050216808604B460022012150
:101E6000204600F021FC08B10320E6E62068C068A7
:101E7000C1B2A26B501CA0631170E08F401EE087BE
:101E8000E08E0028CBDC606890B94B46002201212F
:101E9000204600F009FC08B10320CEE62068C068A7
:101EA000C1B2A26B501CA0631170E08F401EE0878E
:101EB000A06AB0F5005F12D14B46002201212046F6
:101EC00000F0F2FB28B1606D40F002006065032075
:101ED000B3E62068C06880B20090BDF800004B46B1
:101EE00001228021204600F0DFFB28B1606D40F028
:101EF000100060650320A0E6012084F851002068EE
:101F00008068C0F3001AA06AB0F5005F1FD1BAF173
:101F1000000F1CD0606D40F002006065A06AB0F553
:101F2000005F0DD100BF2068006820F400502168D8
:101F300008602068006840F400502168086000BF15
:101F400000BF002084F8500000BF012075E600BFEC
:101F5000002084F8500000BF6FE602206DE670B5E7
:101F600004462546681EB0F1807F01D301200FE0B2
:101F7000681E4FF0E02148610F214FF0FF3000F064
:101F8000C1FA00204FF0E02188610720086100209D
:101F900070BD10B504460CB9012010BDA06900B198
:101FA00000E000BF94F8390028B9002084F8380018
:101FB000204600F025F8022084F839002068C06827
:101FC00020F400502168C860204600F0A1FC206881
:101FD000006920F49040216808612068406920F081
:101FE0002A00216848612068C06840F400502168D8
:101FF000C8600020E063012084F839000020CCE7AD
:1020000010B586B004464748844242D100BF4648D6
:10201000006840F00100444908600846006800F08C
:102020000100009000BF00BF00BF0846006840F0FC
:10203000010008600846006800F00100009000BF41
:1020400000BF00BF38481430006840F01000364927
:10205000143108600846006800F01000009000BFCE
:1020600000BF481501900220029001200390022039
:1020700004900720059001A92C48FEF741FB4FF47E
:10208000806001900720059001A92848FEF738FBE1
:1020900046E02748844241D100BF2348006840F011
:1020A0000100214908600846006800F00100009026
:1020B00000BF00BF00BF0846006840F00100086094
:1020C0000846006800F00100009000BF00BF00BF9C
:1020D00015481030006840F4003013491031086092
:1020E0000846006800F40030009000BF00BF0420E4
:1020F000019002200290012003900220049007200A
:10210000059001A90948FEF7FBFA08200190072075
:10211000059001A90548FEF7F3FA01E000BFFEE7CC
:1021200006B010BDE4050020303802400000024037
:10213000240600202DE9F04704460D461646994630
:102140004FF0000894F83980B8F1010F02D0B8F1CF
:10215000220F65D105B116B90120BDE8F08700BF97
:1021600094F83800012801D10220F6E7012084F814
:10217000380000BF0020E06394F83900222803D122
:10218000322084F8390002E0122084F83900A68455
:10219000E68428E0E08C401EE084A068B0F5805F13
:1021A00014D14B4600228021204600F0C3FC08B128
:1021B0000320D2E72F463888C0F308002168486022
:1021C000206908B9AD1C0EE06D1C0CE04B460022E6
:1021D0008021204600F0AEFC08B10320BDE715F8D1
:1021E000010B21684860E08C0028D3DC4B460022BC
:1021F0004021204600F09EFC08B10320ADE794F892
:102200003900322803D1222084F8390002E001206D
:1022100084F8390000BF002084F8380000BF9CE734
:1022200002209AE72DE9F0410546A84608F101068B
:1022300098F80000042801D0BDE8F0813078052826
:1022400004D03E280CD0FF2864D125E0B41CFEF752
:1022500036FA002031490880207900F0EFFF59E07C
:10226000B71C3878012802D0022813D111E07C1C59
:10227000E078012805D100F0E0FFB4F8010001F09A
:1022800043F9E07820B9B4F80110601DFEF716FAA2
:1022900000E000BF00BF3DE0B71C388840F60F42A9
:1022A000811A904221D008DCA0F2064060B30128D8
:1022B0002BD0A0F2FB7008BB06E0012927D0032930
:1022C00024D0052924D11AE0BC1C207A002806DD80
:1022D000217AE07904F1090200F0B5FF04E0E07929
:1022E000012801D10D49088012E0BB1C9A78921E8A
:1022F000D1B2B3F803005A1DFEF7E2F908E0BC1CA6
:10230000608800F0C5F903E002E001E000E000BFF2
:1023100000BF00BF00BF00BF8EE700002800002004
:1023200010B50B4801F0BDFA0A4801F0BAFA0024D2
:102330000BE0C4EBC40000EB8000074A02EB800115
:10234000034801F0B8FA601CC4B2052CF1DB10BDE3
:10235000540000205C000020D002002038B500208E
:102360000090FEF773F92EE01A4801F0ABFA10BBAB
:102370006946184801F0AEFA8022009908311648E3
:10238000FEF7ACF8C4B2002C10DD009880F888404D
:10239000009800F071F820B91048009901F08BFA0C
:1023A0000FE00C48009901F07FFA0AE00948009913
:1023B00001F07AFA05E0012009490870FEF746F9B4
:1023C00038BDFEF743F9FEF769F80028CCD100BF0D
:1023D000F6E70000540000208C0500205C0000207F
:1023E0006400002030B5A1B000200090FEF739F95C
:1023F000194801F067FA054613E06946164801F0EE
:1024000069FAFEF756F900980830FFF70BFFFEF760
:1024100028F91248009901F04EFA0F4801F052FADB
:102420000546002DE9D00E48007888B10AE08022E8
:1024300001A90C48FEF752F8C4B2002C02DD01A835
:10244000FFF7F0FEFEF72AF80028F0D104490870E3
:10245000FEF72FF921B030BD5C00002054000020B1
:10246000640000208C05002010B5024801F02AFA13
:1024700010BD00005C000020014601F10802107848
:10248000042801D001207047937891F88800C01E7D
:10249000834201D00220F6E70020F4E72DE9FE4355
:1024A00004460D4616461F460E4800680A21B0FB3A
:1024B000F1F8414601A800F0CFF90EE0F8B2F3B20E
:1024C0002A46214600900848FEF75CF800B905E06E
:1024D00001A800F0B3F900B100E0EFE700BFBDE8EC
:1024E000FE830000BC3A00088C05002000BFFEE718
:1024F0007047000002480068C0F3022070470000E7
:102500000CED00E010B5002807DA0A07140E054AA2
:1025100000F00F031B1FD45403E00A07130E024AF6
:10252000135410BD18ED00E000E400E070B504465F
:102530000D461646324629462046FDF747FE70BD39
:1025400070B504460D461646324629462046FDF72C
:1025500051FE70BD7047014600BF080900EB8000C6
:10256000420001F00F001044C0B270470146002243
:1025700003E0521CA1F10A00C1B20A29F9DA1007DE
:1025800041EA10607047000000B587B014208DF854
:102590001B0001208DF819008DF81A0002208DF81B
:1025A0001800012206A90D48FFF7D2F808B100BFB4
:1025B000FEE700208DF804008DF805008DF8060078
:1025C0008DF80C0004900590012201A90348FFF743
:1025D00049F908B100BFFEE707B000BDB002002016
:1025E00030B587B00546002201A91448FFF702F86C
:1025F000002206A91148FEF7D7FF4FF47A7102981E
:10260000484340F2FF31B0FBF1F0C0F57A709DF81D
:10261000061001EB4102C2EBC11100EBC1009DF8B5
:1026200005104FF47A7211FB02F1C1EB011100EBBE
:10263000810424F07F44204607B030BDB002002062
:1026400070B5044600252068C06800F04000A0B9BD
:10265000681E2168C860FEF749F9054607E0FEF7E5
:1026600045F9401BB0F57A7F01D9032070BD206881
:10267000C06800F040000028F1D00020F6E700001C
:1026800010B50248FEF770FF10BD0000B002002038
:1026900010B504460348008818B10248008800F0CD
:1026A000BEFC10BD260000202DE9F04104460E4678
:1026B00017461D464FF00008FEF718F98046002F18
:1026C0003ED132E0681C78B32DB1FEF70FF9A0EBD4
:1026D0000800A84229D92068406820F0E00021685D
:1026E00048602068006820F0400021680860A06A07
:1026F000B0F5005F0DD100BF2068006820F40050E5
:10270000216808602068006840F400502168086073
:1027100000BF012084F8510000BF002084F8500061
:1027200000BF0320BDE8F081FFE7206880683040EB
:10273000B04201D1012000E000200028C2D03BE0DF
:1027400030E0681C70B32DB1FEF7D0F8A0EB0800A4
:10275000A84227D92068406820F0E000216848603E
:102760002068006820F0400021680860A06AB0F589
:10277000005F0DD100BF2068006820F40050216880
:1027800008602068006840F400502168086000BFBD
:10279000012084F8510000BF002084F8500000BFE1
:1027A0000320BFE7206880683040B04201D101209B
:1027B00000E000200028C4D10020B3E770470000EB
:1027C00010B5FEF799F803480068401C01490860FD
:1027D00010BD0000740000201448006840F4700030
:1027E000124908601248006840F001001049086072
:1027F00000200F49083108600D4800680D49084065
:102800000B4908600C48091D0860081F006820F487
:102810008020091F0860002005490C3108604FF036
:1028200000600249803908607047000088ED00E0D0
:1028300000380240FFFFF6FE1030002470B5044659
:10284000FDF70AFF2168401A451C6068A84201D2C2
:10285000012070BD0020FCE770B504460D466560A0
:10286000FDF7FAFE206070BD10B5174817490860E3
:102870004FF4E1304860002114488160C16001617B
:1028800081610C2141610021C161FFF782FB08B128
:1028900000BFFEE70EA000F0CBF91B481B49086003
:1028A0004FF4E1304860002118488160C160016147
:1028B00081610C2141610021C161FFF76AFB08B110
:1028C00000BFFEE710BD000000100140E40500203D
:1028D0000A0D5265746172676574207468652043DF
:1028E000206C696272617279207072696E74662000
:1028F00066756E6374696F6E20746F2074686520EE
:1029000055415254310A0D00004400402406002075
:102910002DE9F041044600252068056925F440555D
:10292000E0680543206805612068C56849F20C60CD
:1029300085432169A068084361690843E169084348
:1029400005432068C5602068456925F44075A06985
:10295000054320684561E069B0F5004F72D17349C5
:102960002068884203D072492068884234D1FEF73B
:10297000C9FA00EBC00101EB001061684900B0FB2F
:10298000F1F06421B0FBF1F6FEF7BCFA00EBC001F8
:1029900001EB001061684900B0FBF1F7FEF7B2FAF5
:1029A00000EBC00101EB001061684900B0FBF1F0E1
:1029B0006421B0FBF1F000EBC00101EB0010A7EBCC
:1029C0008000322101EB00106421B0FBF1F066F3CE
:1029D0001F1021688860A6E0FEF77EFA00EBC001B8
:1029E00001EB001061684900B0FBF1F06421B0FB1D
:1029F000F1F6FEF771FA00EBC00101EB001061681F
:102A00004900B0FBF1F7FEF767FA00EBC00101EBFC
:102A1000001061684900B0FBF1F06421B0FBF1F0F7
:102A200000EBC00101EB0010A7EB8000322101EBAD
:102A300000106421B0FBF1F066F31F10216888607C
:102A400071E0FFE739492068884203D0384920689F
:102A5000884234D1FEF756FA00EBC00101EB0010BA
:102A600061688900B0FBF1F06421B0FBF1F6FEF77C
:102A700049FA00EBC00101EB001061688900B0FB6E
:102A8000F1F7FEF73FFA00EBC00101EB00106168BF
:102A90008900B0FBF1F06421B0FBF1F000EBC00164
:102AA00001EB0010A7EB8000322101EB0010642144
:102AB000B0FBF1F066F31F102168886033E0FEF789
:102AC0000BFA00EBC00101EB001061688900B0FB5C
:102AD000F1F06421B0FBF1F6FEF7FEF900EBC00166
:102AE00001EB001061688900B0FBF1F7FEF7F4F923
:102AF00000EBC00101EB001061688900B0FBF1F050
:102B00006421B0FBF1F000EBC00101EB0010A7EB7A
:102B10008000322101EB00106421B0FBF1F066F37C
:102B20001F1021688860BDE8F0810000001001409E
:102B3000001401402DE9F04104460E4617461D469B
:102B40004FF00008FDF7D2FE80469FBB2BE0681CCB
:102B500048B32DB1FDF7CAFEA0EB0800A84222D968
:102B60002068C06820F080002168C8602068C068C4
:102B700020F020002168C8602068C06820F48070C0
:102B80002168C8602068406920F001002168486120
:102B9000012084F8390000BF002084F8380000BF0D
:102BA0000320BDE8F081206800683040B04202D1C7
:102BB000012001E003E000200028C8D035E02AE031
:102BC000681C40B32DB1FDF791FEA0EB0800A842B0
:102BD00021D92068C06820F080002168C860206882
:102BE000C06820F020002168C8602068C06820F418
:102BF00080702168C8602068406920F00100216869
:102C00004861012084F8390000BF002084F83800B2
:102C100000BF0320C5E7206800683040B04201D102
:102C2000012000E000200028CAD10020B9E7000000
:102C3000014A024900F014B8F53500089800002058
:102C4000704702E008C8121F08C1002AFAD1704775
:102C50007047002001E001C1121F002AFBD170471C
:102C60002DE9F04116460F460446002503E039469B
:102C7000B047641C6D1C20780028F8D12846BDE8B8
:102C8000F0812DE9F04389B004460D4616461F46F3
:102C9000DDE910898DF808408DF809508DF80A603B
:102CA000072200216846FFF74BFC1822002103A8E9
:102CB000FFF746FC3F20ADF80C008A20ADF80E006F
:102CC00002A8059003200690CDF81CD0072008909C
:102CD000002103A800F0F4FC002803DAFF2009B06B
:102CE000BDE8F0839DF8000010B19DF80000F6E704
:102CF000BDF801003880BDF80300A8F80000BDF859
:102D00000500A9F800000020E9E72DE9F04F8FB099
:102D100004460D4616461F46DDE91AABDDE9188963
:102D20008DF808408DF80950102231460DF10A0047
:102D3000FFF7FCFB8DF81A708DF81B808DF81C9046
:102D4000CDF81DA08DF821B01822002109A8FFF7A9
:102D5000F7FB3F20ADF824008620ADF8260002A83E
:102D60000B901A200C9001A80D9001200E900021CC
:102D700009A800F0A5FC002803DAFF200FB0BDE889
:102D8000F08F9DF8040010B19DF80400F6E70020D4
:102D9000F4E72DE9FF4F91B007469846DDE9216B36
:102DA000DDE91F5ADDF878900024A8190E30282894
:102DB00003D9422015B0BDE8F08F0DF80470601CF7
:102DC000C4B2BDF8480012900DEB0400022212A913
:102DD000FFF7ACFBA01CC4B2BDF84C0013900DEB88
:102DE0000400022213A9FFF7A1FBA01CC4B20DF836
:102DF0000480601CC4B20DF80490601CC4B20DF8CD
:102E00000450601CC4B20DEB04002A465146FFF783
:102E10008DFB6019C4B20DF80460601CC4B20DEBE8
:102E2000040032465946FFF781FBA019C4B2BDF831
:102E30008C0023900DEB0400022223A9FFF776FB00
:102E4000A01CC4B2BDF8900024900DEB0400022237
:102E500024A9FFF76BFBA01CC4B2182200210BA809
:102E6000FFF76EFB3F20ADF82C008320ADF82E005D
:102E7000CDF834D00E940AA80F90012010900021B4
:102E80000BA800F01DFC002801DAFF2092E79DF856
:102E9000280010B19DF828008CE700208AE72DE972
:102EA000FF4F8FB00E4617469846DDE91DABDDF8A3
:102EB00070900024BDF83C000F9001A9081902226F
:102EC0000FA9FFF733FBA41C01A80655641C012EB3
:102ED00001D1022500E0102501A908192A4639462A
:102EE000FFF724FB6019C4B201A800F80480601C3D
:102EF000C4B201A800F80490601CC4B201A800F894
:102F000004A0601CC4B201A800F804B0601CC4B2E4
:102F100001A91F980855601CC4B220980855601C70
:102F2000C4B20322002108A8FFF70AFB18220021DF
:102F300009A8FFF705FB3F20ADF824004FF482708D
:102F4000ADF8260001A80B900C9408A80D90032062
:102F50000E90002109A800F0B3FB002803DAFF203F
:102F600013B0BDE8F08F9DF8200010B19DF820004F
:102F7000F6E7BDF82110219801800020F0E72DE947
:102F8000F0478CB00646894617469846DDF850A0B3
:102F900000240DF80460641C012E01D1022500E01C
:102FA00010250DEB04002A464946FFF7BFFA6019C9
:102FB000C4B20DF80470601CC4B20DF80480601C2B
:102FC000C4B20322002105A8FFF7BAFA1822002193
:102FD00006A8FFF7B5FA3F20ADF818004FF481704E
:102FE000ADF81A00CDF820D0099405A80A90032066
:102FF0000B90002106A800F063FB002803DAFF20F5
:103000000CB0BDE8F0879DF8140010B19DF81400D5
:10301000F6E7BDF81500AAF800000020F0E710B5AB
:1030200088B0044601941822002102A8FFF788FA0C
:103030003F20ADF8080040F22710ADF80A0001A8C3
:10304000049002200590CDF818D0012007900021AF
:1030500002A800F035FB002802DAFF2008B010BDFE
:103060009DF80000FAE700B587B01822002101A8FA
:10307000FFF766FA3F20ADF8040040F20110ADF80A
:103080000600CDF814D001200690002101A800F020
:1030900017FB002802DAFF2007B000BD9DF80000F2
:1030A000FAE7FFB5A7B016461D46309F0024A81DBD
:1030B000802802DD42202BB0F0BDBDF89C00279097
:1030C0000DEB0400022227A9FFF730FAA01CC4B2BE
:1030D000BDF8A00028900DEB0400022228A9FFF7FC
:1030E00025FAA01CC4B20DF80460601CC4B20DF82F
:1030F0000450601CC4B20DEB04002A463946FFF7A9
:1031000015FA6019C4B21822002121A8FFF718FA95
:103110003F20ADF884004FF48370ADF88600CDF801
:103120008CD0249420A8259001202690002121A84D
:1031300000F0C6FA002801DAFF20BCE79DF8800005
:1031400010B19DF88000B6E70020B4E730B589B033
:1031500004460D468DF808408DF8095018220021CC
:1031600003A8FFF7EDF93F20ADF80C000F20ADF8F4
:103170000E0002A805900220069001A807900120E9
:103180000890002103A800F09BFA002802DAFF2033
:1031900009B030BD9DF8040010B19DF80400F7E7B8
:1031A0000020F5E7F0B5A7B006460D461746002407
:1031B000A81C802802DD422027B0F0BD0DF8046075
:1031C000601CC4B20DF80450601CC4B20DEB0400C6
:1031D0002A463946FFF7AAF96019C4B2182200211D
:1031E00021A8FFF7ADF93F20ADF884000C20ADF821
:1031F0008600CDF88CD0249420A82590012026901C
:10320000002121A800F05CFA002801DAFF20D3E7B2
:103210009DF8800010B19DF88000CDE70020CBE73D
:1032200070B50446224606210020FFF7BBFF054685
:103230000DB1672070BD0020FCE7704710B5044653
:1032400000F06AF810BD70B504460D4616463246C9
:103250002946204600F002F870BD0000F0B587B0A6
:1032600006460C4617461348008810B9F22007B0EE
:10327000F0BD122C00D912248DF80860E0B28DF850
:103280000900224639460DF10A00FCF79FFF02A80B
:1032900000909DF80900801CC3B2002206480188F6
:1032A00006480088FFF7FDFE05460DB14720DEE722
:1032B0000020DCE728000020300000202A00002049
:1032C00001494880704700000A00002010B50446FC
:1032D0002046FCF798FF0C49087008460078401C0F
:1032E0000A4908700848027821460948FCF76EFF31
:1032F0000920084908700448027821460548401C06
:10330000FCF764FF002010BD2400002025000020F1
:10331000100000209C00002030B589B0032517A0C4
:10332000006808900021084600F076F90120FDF7BA
:10333000C8F9134800901348037800221248018806
:1033400012480088FFF7ADFE0446002008AACDE928
:103350000420039506900E480E4909780022CDE915
:10336000002102900C484288418800231846FFF74C
:1033700010FD0446204609B030BD00000390FE0059
:10338000100000202400002036000020340000201F
:103390009C000020250000200A0000201FB5FFF738
:1033A00062FE044614B1682004B010BD2B480078BA
:1033B00002280CD12A482B492B4BCDE900102B4871
:1033C000027800210120FFF75CFC04461CE0234842
:1033D000007803280CD122482249234BCDE9001064
:1033E0002248027800210520FFF74BFC04460BE041
:1033F0001B481C491C4BCDE900101C4802780021D9
:103400000420FFF73EFC04460CB16920CCE7012004
:10341000174900221023CDE90032CDE9021007231D
:103420001146FFF772FC04460CB16A20BCE70B485A
:103430000078022805D1FCF7FFFE04465CB16B2042
:10344000B2E706480078032805D1FCF7F5FE0446EC
:103450000CB16B20A8E70020A6E700003A0000208E
:103460003800002036000020340000202400002016
:1034700040E201002DE9F04107460C4615461E4684
:103480002046FFF7CDFE3846FFF720FF284600F024
:1034900008F83046FFF714FFFFF780FF8046BDE8CD
:1034A000F08170B5044621460120FFF74FFE054626
:1034B000284670BD08B5FDF727FAFCF7C9FF0020C4
:1034C000FCF792FFFFF7D0F94FF47A70FDF7F9F8A7
:1034D00000F0E1F9FCF768FFFEF722FFFCF7EAFFD6
:1034E00000BF0848006840F0805006490860084660
:1034F000006800F08050009000BF00BF00F054FA58
:1035000008BD0000403802400149088070470000B3
:103510002600002010B52046FFF762F810BD00001D
:1035200070B5144C00BF002614E0206800B912E00A
:10353000FFF7F0FF05462068C068281A20F07F409A
:103540000D49884205D22946204600F019F8012687
:1035500000E000E0E9E700BF084C206820B100214E
:10356000204600F00DF80126002EDCD100F0FAF91B
:1035700070BD000044000020FFFF7F004C000020D1
:1035800070B504460E4625682068006820602068F3
:1035900008B900206060D5E90110884706484068F6
:1035A00028B10548406805600348456002E00248CC
:1035B0004560056070BD00003C000020002007E071
:1035C0000A4A411C02EB011102EB00121160401C7F
:1035D0001F28F5DB0021054AC2F8F0111146044A04
:1035E000116001F5F871516070470000B0000020D3
:1035F0003C00002073B50D464FF6FF73012269466B
:103600000448FEF797FD044614B14FF0FF307CBD2F
:103610000098FCE7E405002030B58FB004460D4665
:103620002022002101A8FEF78BFF8DF804401F2CFB
:1036300001DD1F2000E02046024629460DF105006D
:10364000FEF774FF1822002109A8FEF779FF082071
:10365000ADF824000920ADF8260001A80B90202029
:103660000C90CDF834D001200E90002109A800F074
:1036700027F8002802DAFF200FB030BD9DF80000C7
:10368000FAE72DE9FC4105460F4614461E4638462A
:1036900065F39F2080B2ADF804008DF8064001204C
:1036A0008DF80000032201A9C81EFEF73FFF234644
:1036B00004223146684600F0DFF8BDE8FC810000D6
:1036C0002DE9F04F89B004468A462188608861F36D
:1036D0009F2080B20890654800680A21B0FBF1F095
:1036E00006900020039001A800F0DBF8227B61889F
:1036F0002088A368FFF7C5FFBAF1000F00D0A9E04A
:10370000069808B90120069004A80699FFF7A4F8C6
:1037100094E008E004A8FFF791F800B18FE0FEF70D
:10372000A3FE00B900E0F5E700BFFCF79AFF03A98C
:103730004F4800F0CFF8039800F1080738780428C4
:1037400006D001A8039900F0B6F8FCF7B2FF75E0C7
:10375000781C0790039800F10B05039890F88800F7
:10376000C61E079800780E2823D00F2804D01028F2
:103770004DD03E284CD133E0A8464546B8F802105B
:103780000898814200D05AE060680F2804D098F869
:10379000000000B153E03CE06069B04201DD30461A
:1037A00000E0606960612946D4E90402FEF7BEFECC
:1037B00050E0AB465D46BBF801100898814200D04E
:1037C0003DE0ED1CF61E6069B04201DD304600E0D0
:1037D000606960612946D4E90402FEF7A7FE39E07A
:1037E000A9464D4699F800006168884200D010E073
:1037F000761E6069B04201DD304600E060696061BC
:1038000009F10101D4E90402FEF790FE22E016E07E
:1038100000BF00BF01A8039900F04DF8154800F063
:1038200051F840B16946124800F054F81148009927
:1038300000F041F800BFFCF73CFF00BF69E701A9B9
:103840000B4800F06BF8FCF734FF4FF0FF3009B085
:10385000BDE8F08F0748039900F026F801A9044855
:1038600000F05CF8FCF725FF0020F0E7BC3A000808
:103870005C000020540000202DE9F04104460D4674
:1038800016461F463B46324629462046FEF706FEB0
:10389000BDE8F081704710B5FFF7FCFFFFF7D0F9E6
:1038A00010BD00604060704702680A6048600160B7
:1038B0000A6851607047086042684A6041604A681F
:1038C0001160704701460868884201D101207047A5
:1038D0000020FCE710B504460B46206818602068FD
:1038E00000F006F80020196808601968486010BDEB
:1038F000D0E900121160D0E9002151607047704793
:10390000FFF7D8FDFFF75AFE00F01AF805E0FEF7C2
:1039100069FDFFF705FEFFF7F2FFF8E738B505464A
:103920000C4607E069462046FFF7D4FF2846009979
:10393000FFF7C1FF2046FFF7C5FF0028F2D038BDD2
:1039400070B5072464252B462246044904480068C4
:10395000FFF790FDFFF7E0FC70BD000004000020C1
:103960000000002070B50E48006898B1FFF7D2FD46
:1039700004460B480068C568281B20F07F46E01C01
:10398000281A20F07F400749884207D2304600F0CD
:1039900081F803E04CF2503000F07CF870BD00007C
:1039A00044000020FFFF7F0010B50B480B49086062
:1039B000002048601F210948816040F2FF31C1604A
:1039C0000021016141618161FDF740FE08B100BF46
:1039D000FEE7FEF7D9FD10BD00280040B002002030
:1039E00010B504464FF47A7060434FF4F471B0FBA5
:1039F000F1F40C48FDF7F6FC0B48006840F00400B9
:103A00000949086007480068C06800F0800060F459
:103A1000906004490968C860611E00220148FDF7F2
:103A20002DFD10BDB00200200070004000B585B033
:103A3000102000900948019002200290032003907A
:103A40000020049069460648FCF75AFE00200290C8
:103A500069460348FCF754FE05B000BD0000111094
:103A60000008024000B585B01020009001200190B0
:103A7000032003900020029069460548FCF740FEB1
:103A8000012210210248FCF72BFF05B000BD000009
:103A90000008024010B504462046FFF7A1FF10BD04
:103AA00008B50020009003E000BF0098401C009083
:103AB00040F2654100988842F6DB08BDE80300004B
:103AC00008000200070000000001020304010203D5
:103AD00004060708090000004341465F4543484F7C
:103AE0005F4C4F5645000000083B000800000020D6
:103AF0009C000000422C0008A43B00089C00002011
:103B0000CC0D0000522C0008D83A00080805040328
:103B10000204000000000000426C75654E52470030
:103B20000000000000000000000000001400000081
:103B30000000010006000A000D0010000000000057
:103B40000000020000000000000000000000000073
:103B50000000000000000000000000000000000065
:103B60000000000000000000000000000000000055
:103B70000004024000000240E803000000000000D2
:103B80000000000000000000000000000024F4001D
:103B900000000000000000000102030406070809FD
:043BA0000000000021
:040000050800019559
:00000001FF
